:020000040800F2
:1000000000280020011A0008FD1700080318000846
:10001000091800080F180008151800080000000053
:100020000000000000000000000000001B18000895
:100030002718000800000000331800083F180008C7
:10004000491A0008491A0008491A0008491A000804
:10005000491A0008491A0008491A0008491A0008F4
:10006000491A0008491A0008491A0008491A0008E4
:10007000491A0008491A0008491A0008491A0008D4
:10008000491A0008491A0008491A0008491A0008C4
:10009000491A0008491A0008491A0008491A0008B4
:1000A000491A0008491A0008491A0008491A0008A4
:1000B0004D180008491A000800000000491A0008FD
:1000C000491A00080000000000000000491A00085A
:1000D00000000000491A0008491A0008000000004A
:1000E000491A0008491A0008491A000800000000CF
:1000F0000000000000000000000000000000000000
:0C01000000000000000000005FF808F1A3
:10010C0010B5054C237833B9044B13B10448AFF345
:10011C0000800123237010BD20000020000000008F
:10012C004C30000808B5034B1BB103490348AFF32F
:10013C00008008BD00000000240000204C300008A6
:10014C0080B483B000AF7860094A7B6852F82330E2
:10015C00012B06D1064A7B68002142F823100123AB
:10016C0000E0002318460C37BD4680BC704700BF2A
:10017C003C00002080B500AF684B1B68172B00F2C9
:10018C00C18001A252F823F0F50100081103000808
:10019C0011030008110300081103000811030008E3
:1001AC0011030008110300081103000811030008D3
:1001BC0011030008110300081103000811030008C3
:1001CC0011030008110300081103000811030008B3
:1001DC001103000811030008210200085D02000849
:1001EC0099020008D50200084C4B14221A604C4BA3
:1001FC001B684FF47A7202FB03F3184601F052F9B4
:10020C00484B1B684FF47A7202FB03F3184601F05B
:10021C0063F980E001F014F801F05CFB424B1B68C1
:10022C00012B71D13D4B15221A603D4B1B684FF4CD
:10023C007A7202FB03F3184601F034F93B4B1B684E
:10024C004FF47A7202FB03F3184601F045F95BE0B8
:10025C0000F0F6FF01F062FB334B1B68012B55D10C
:10026C002E4B16221A602E4B1B684FF47A7202FB2F
:10027C0003F3184601F016F92A4B1B684FF47A72F7
:10028C0002FB03F3184601F027F93FE000F0D8FF1A
:10029C0001F068FB244B1B68012B39D11F4B172233
:1002AC001A601F4B1B684FF47A7202FB03F318465B
:1002BC0001F0F8F81D4B1B684FF47A7202FB03F344
:1002CC00184601F009F923E000F0BAFF01F06EFBCB
:1002DC00154B1B68012B1DD1104B14221A60104BAF
:1002EC001B684FF47A7202FB03F3184601F0DAF83C
:1002FC000C4B1B684FF47A7202FB03F3184601F0A7
:10030C00EBF807E000BF06E000BF04E000BF02E02E
:10031C0000BF00E000BF00BF80BD00BF5000002048
:10032C00040000200C0000208000002008000020A9
:10033C0080B582B000AF7860354B1B68022B30D093
:10034C00022B5BDC002B02D0012B07D056E0304B8C
:10035C0001221A60FA2001F0F3F854E0002000F0BA
:10036C00CBFC2C4B1B682C4A82FB03129210DB1724
:10037C00D31A184600F068F97B68274A82FB0312EF
:10038C009210DB17D31A184600F0ECFA234B1B68BB
:10039C00012B35D1FA2001F0D3F81D4B02221A6043
:1003AC002EE0012000F0A8FC1A4B1A681A4B83FBB4
:1003BC0002139910D317C91A0B469B000B445B0010
:1003CC00D11A084600F040F97A68134B83FB0213EC
:1003DC009910D317C91A0B469B000B445B00D11A1A
:1003EC00084600F0BFFA0D4B1B68012B0AD1FA200E
:1003FC0001F0A6F8064B01221A6003E000BF02E0F0
:10040C0000BF00E000BF00BF0837BD4680BD00BF85
:10041C0048000020000000206766666690000020FF
:10042C0080B500AF7D4B1B68012B05D101F018FA8C
:10043C004FF47A7001F09EF8794B1B68013B032B4B
:10044C0000F2E08001A252F823F000BF690400081A
:10045C008B04000871050008FF040008FFF78AFEF2
:10046C000020FFF76DFE0346012B40F0CD806C4B56
:10047C0002221A604FF4FA7001F048F8C4E0694B9C
:10048C001B681846FFF754FF674B1B68012B05D1FF
:10049C0001F0F0F94FF4FA7001F038F80020FFF792
:1004AC004FFE0346012B06D15D4B04221A604FF41C
:1004BC00FA7001F02BF80120FFF742FE0346012BE6
:1004CC000BD1584B1B680133564A1360554B1B68B4
:1004DC00632B02DD534B01221A600220FFF730FE22
:1004EC000346012B40F092804E4B1B684F4A136021
:1004FC008CE04F4B1B681846FFF71AFF4A4B1B68E2
:10050C00012B05D101F0D6F94FF4FA7000F0FEFF83
:10051C000020FFF715FE0346012B06D1404B0322AA
:10052C001A604FF4FA7001F00BF80120FFF708FE87
:10053C000346012B0BD13E4B1B6801333C4A136025
:10054C003B4B1B68632B02DD394B01221A600220E6
:10055C00FFF7F6FD0346012B5AD1354B1B68354A84
:10056C00136055E0344B1B681846FFF7E1FE2E4B29
:10057C001B68012B05D101F08DF94FF4FA7000F0D6
:10058C00C5FF0020FFF7DCFD0346012B02D1244BF5
:10059C0001221A600120FFF7D3FD0346012B0BD17A
:1005AC00254B1B680133244A1360234B1B68632BB8
:1005BC0002DD214B01221A600220FFF7C1FD034628
:1005CC00012B27D11C4B1B681C4A13601A4B1A6851
:1005DC00174B1B681344134A1360124B1B68134AC6
:1005EC001360134B1B68134A1360134B1B68134A9D
:1005FC00136000F0C5FB124B00221A60114B002255
:10060C001A6007E000BF06E000BF04E000BF02E094
:10061C0000BF00E000BF00BF80BD00BFC0000020D5
:10062C00000000205400002088000020040000205E
:10063C0058000020080000205C0000200C00002066
:10064C00500000204C00002080B582B000AF7860D4
:10065C007B68092B00F2808101A252F823F000BFC5
:10066C0095060008DD060008250700086D07000840
:10067C00B5070008FD070008450800088D080008AC
:10068C00D50800081D09000800220121B44801F01A
:10069C00C1FC00220221B24801F0BCFC0022042162
:1006AC00AF4801F0B7FC00220821AD4801F0B2FCC4
:1006BC0000221021AA4801F0ADFC00222021A848FC
:1006CC0001F0A8FC01224021A54801F0A3FC43E164
:1006DC0001220121A24801F09DFC00220221A04828
:1006EC0001F098FC002204219D4801F093FC0122AA
:1006FC0008219B4801F08EFC01221021984801F042
:10070C0089FC01222021964801F084FC0122402121
:10071C00934801F07FFC1FE100220121904801F079
:10072C0079FC002202218E4801F074FC0122042184
:10073C008B4801F06FFC00220821894801F06AFC0B
:10074C0000221021864801F065FC012220218448FA
:10075C0001F060FC00224021814801F05BFCFBE0D1
:10076C00002201217E4801F055FC002202217C4828
:10077C0001F050FC00220421794801F04BFC0022CE
:10078C000821774801F046FC01221021744801F041
:10079C0041FC01222021724801F03CFC0022402146
:1007AC006F4801F037FCD7E0012201216C4801F0C1
:1007BC0031FC002202216A4801F02CFC00220421A9
:1007CC00674801F027FC01220821654801F022FC52
:1007DC0001221021624801F01DFC002220216048FA
:1007EC0001F018FC002240215D4801F013FCB3E03D
:1007FC00002201215A4801F00DFC01220221584827
:10080C0001F008FC00220421554801F003FC0022F1
:10081C000821534801F0FEFB01221021504801F041
:10082C00F9FB002220214E4801F0F4FB002240216C
:10083C004B4801F0EFFB8FE000220121484801F00A
:10084C00E9FB01220221464801F0E4FB00220421CD
:10085C00434801F0DFFB00221021414801F0DAFB94
:10086C00002208213E4801F0D5FB002220213C4803
:10087C0001F0D0FB00224021394801F0CBFB6BE0AA
:10088C0000220121364801F0C5FB00220221344828
:10089C0001F0C0FB00220421314801F0BBFB012216
:1008AC0008212F4801F0B6FB012210212C4801F041
:1008BC00B1FB012220212A4801F0ACFB012240218E
:1008CC00274801F0A7FB47E000220121244801F052
:1008DC00A1FB00220221224801F09CFB00220421F2
:1008EC001F4801F097FB002208211D4801F092FBE4
:1008FC00002210211A4801F08DFB002220211848FB
:10090C0001F088FB00224021154801F083FB23E015
:10091C0000220121124801F07DFB00220221104827
:10092C0001F078FB002204210D4801F073FB00223A
:10093C0008210B4801F06EFB01221021084801F040
:10094C0069FB00222021064801F064FB00224021B3
:10095C00034801F05FFB00BF00BF0837BD4680BDF8
:10096C00000C014080B582B000AF78607B68092B29
:10097C0000F2BC8101A252F823F000BFB1090008BB
:10098C00050A0008590A0008AD0A0008010B000806
:10099C00550B0008A90B0008FD0B0008510C0008B2
:1009AC00A50C000800228021D24801F033FB002264
:1009BC004FF48071CF4801F02DFB00224FF40071F1
:1009CC00CC4801F027FB00224FF48061C94801F0AC
:1009DC0021FB00224FF40061C64801F01BFB0022F2
:1009EC004FF48051C34801F015FB01224FF4005124
:1009FC00C04801F00FFB79E101228021BD4801F0D4
:100A0C0009FB00224FF48071BA4801F003FB00226D
:100A1C004FF40071B74801F0FDFA01224FF48061E8
:100A2C00B44801F0F7FA01224FF40061B14801F02B
:100A3C00F1FA01224FF48051AE4801F0EBFA012299
:100A4C004FF40051AB4801F0E5FA4FE10022802150
:100A5C00A84801F0DFFA00224FF48071A54801F09C
:100A6C00D9FA01224FF40071A24801F0D3FA002206
:100A7C004FF480619F4801F0CDFA00224FF40061E1
:100A8C009C4801F0C7FA01224FF48051994801F0BB
:100A9C00C1FA00224FF40051964801F0BBFA25E14F
:100AAC0000228021934801F0B5FA00224FF48071A6
:100ABC00904801F0AFFA00224FF400718D4801F01C
:100ACC00A9FA00224FF480618A4801F0A3FA0122AE
:100ADC004FF40061874801F09DFA01224FF48051D8
:100AEC00844801F097FA00224FF40051814801F03C
:100AFC0091FAFBE0012280217E4801F08BFA002262
:100B0C004FF480717B4801F085FA00224FF400719C
:100B1C00784801F07FFA01224FF48061754801F0AA
:100B2C0079FA01224FF40061724801F073FA002245
:100B3C004FF480516F4801F06DFA00224FF40051D0
:100B4C006C4801F067FAD1E000228021694801F07D
:100B5C0061FA01224FF48071664801F05BFA0022C1
:100B6C004FF40071634801F055FA00224FF4806194
:100B7C00604801F04FFA01224FF400615D4801F02A
:100B8C0049FA00224FF480515A4801F043FA0022EE
:100B9C004FF40051574801F03DFAA7E000228021A4
:100BAC00544801F037FA01224FF48071514801F09A
:100BBC0031FA00224FF400714E4801F02BFA00225A
:100BCC004FF480614B4801F025FA00224FF400618C
:100BDC00484801F01FFA00224FF48051454801F0BB
:100BEC0019FA00224FF40051424801F013FA7DE04B
:100BFC00002280213F4801F00DFA00224FF4807151
:100C0C003C4801F007FA00224FF40071394801F01A
:100C1C0001FA01224FF48061364801F0FBF9012200
:100C2C004FF40061334801F0F5F901224FF4805183
:100C3C00304801F0EFF901224FF400512D4801F03A
:100C4C00E9F953E0002280212A4801F0E3F900225F
:100C5C004FF48071274801F0DDF900224FF4007148
:100C6C00244801F0D7F900224FF48061214801F0AB
:100C7C00D1F900224FF400611E4801F0CBF900229B
:100C8C004FF480511B4801F0C5F900224FF400517C
:100C9C00184801F0BFF929E000228021154801F025
:100CAC00B9F900224FF48071124801F0B3F9002217
:100CBC004FF400710F4801F0ADF900224FF4806140
:100CCC000C4801F0A7F901224FF40061094801F02A
:100CDC00A1F900224FF48051064801F09BF9002243
:100CEC004FF40051034801F095F900BF00BF0837DD
:100CFC00BD4680BD000C014080B582B000AF78606D
:100D0C007B68002B03D07B68012B19D031E00022CB
:100D1C004FF48071194801F07DF901224FF40071F4
:100D2C00164801F077F900224FF48061134801F066
:100D3C0071F901224FF40061104801F06BF918E0D1
:100D4C0001224FF480710D4801F064F900224FF438
:100D5C0000710A4801F05EF901224FF480610748E6
:100D6C0001F058F900224FF40061044801F052F9E7
:100D7C0000BF00BF0837BD4680BD00BF0008014062
:100D8C0080B400AF274B1B68274A82FB03129210DA
:100D9C00DB17D31A254A1360224B1968224B83FBAD
:100DAC0001239A10CB17D21A13469B0013445B00F5
:100DBC00CA1A1E4B5A601E4B1B681B4A82FB03123D
:100DCC009210DB17D31A194A9360194B1968164BFA
:100DDC0083FB01239A10CB17D21A13469B001344A2
:100DEC005B00CA1A114BDA60124B1B680E4A82FB6D
:100DFC0003129210DB17D31A0C4A13610D4B1968AE
:100E0C00094B83FB01239A10CB17D21A13469B0074
:100E1C0013445B00CA1A054B5A6100BFBD4680BC27
:100E2C00704700BF04000020676666666000002003
:100E3C000C0000200800002080B483B000AF002319
:100E4C007B6081E07B680133444A52F82330002BED
:100E5C0014DA424A7B6852F82330002B0EDD7B6893
:100E6C0001333E4A092142F823103C4A7B6852F870
:100E7C0023305A1E39497B6841F82320374A7B6856
:100E8C0052F82330002B5CD17B680133334A52F883
:100E9C002330002B55D17B68002B19D1304B1B68AC
:100EAC00304A82FB03129210DB17D31A2B4A1360C1
:100EBC002B4B19682B4B83FB01239A10CB17D21A9F
:100ECC0013469B0013445B00CA1A244B5A6038E04B
:100EDC007B68022B19D1244B1B68224A82FB03121C
:100EEC009210DB17D31A1D4A93601F4B19681D4BC8
:100EFC0083FB01239A10CB17D21A13469B00134481
:100F0C005B00CA1A154BDA601BE07B68042B18D106
:100F1C00164B1B68134A82FB03129210DB17D31A71
:100F2C000E4A1361114B19680E4B83FB01239A1067
:100F3C00CB17D21A13469B0013445B00CA1A074BFB
:100F4C005A617B6802337B607B68052B7FF77AAF35
:100F5C0000BF00BF0C37BD4680BC7047600000204E
:100F6C0004000020676666660C0000200800002064
:100F7C0080B500AF284B1B68022B29D0022B49DC13
:100F8C00002B02D0012B0AD044E0FFF755FF4FF4A1
:100F9C00FA7000F087FA204B01221A603AE0002028
:100FAC00FFF7AAFE1D4B1B691846FFF74DFB1B4BA9
:100FBC001B681846FFF7D6FC194B1B68012B26D172
:100FCC00154B02221A604FF4FA7000F06BFA1EE017
:100FDC000120FFF791FE114B5B691846FFF734FBBC
:100FEC000E4B5B681846FFF7BDFC0D4B1B68012BC5
:100FFC000FD10A4B5B68013B084A5360074B5B6996
:10100C00013B064A5361044B00221A6001E000BF09
:10101C0000E000BF00BF80BD4C000020600000203D
:10102C007800002080B500AF284B1B68022B29D01C
:10103C00022B49DC002B02D0012B0AD044E0FFF735
:10104C00FBFE4FF4FA7000F02DFA204B01221A60CF
:10105C003AE00020FFF750FE1D4B9B681846FFF747
:10106C00F3FA1B4B1B681846FFF77CFC194B1B68EB
:10107C00012B26D1154B02221A604FF4FA7000F0A6
:10108C0011FA1EE00120FFF737FE114BDB68184602
:10109C00FFF7DAFA0E4B5B681846FFF763FC0D4B53
:1010AC001B68012B0FD10A4B5B68013B084A53604C
:1010BC00074BDB68013B064AD360044B00221A60E5
:1010CC0001E000BF00E000BF00BF80BD4C0000206D
:1010DC00600000207800002080B500AF284B1B6812
:1010EC00022B29D0022B49DC002B02D0012B0AD079
:1010FC0044E0FFF7A1FE4FF4FA7000F0D3F9204B57
:10110C0001221A603AE00020FFF7F6FD1D4B1B6828
:10111C001846FFF799FA1B4B1B691846FFF722FC80
:10112C00194B1B68012B26D1154B02221A604FF468
:10113C00FA7000F0B7F91EE00120FFF7DDFD114B4E
:10114C005B681846FFF780FA0E4B5B691846FFF791
:10115C0009FC0D4B1B68012B0FD10A4B5B68013B43
:10116C00084A5360074B5B69013B064A5361044BC9
:10117C0000221A6001E000BF00E000BF00BF80BD8C
:10118C004C000020600000207800002080B500AFEB
:10119C00284B1B68022B29D0022B49DC002B02D0D8
:1011AC00012B0AD044E0FFF747FE4FF4FA7000F031
:1011BC0079F9204B01221A603AE00020FFF79CFDE0
:1011CC001D4B1B681846FFF73FFA1B4B9B681846D4
:1011DC00FFF7C8FB194B1B68012B26D1154B0222BC
:1011EC001A604FF4FA7000F05DF91EE00120FFF771
:1011FC0083FD114B5B681846FFF726FA0E4BDB6834
:10120C001846FFF7AFFB0D4B1B68012B0FD10A4B98
:10121C005B68013B084A5360074BDB68013B064A9D
:10122C00D360044B00221A6001E000BF00E000BF55
:10123C0000BF80BD4C000020600000207800002022
:10124C0080B500AF0F4B1B68143B032B16D801A2C3
:10125C0052F823F071120008771200087D12000872
:10126C0083120008FFF792FF09E0FFF735FF06E055
:10127C00FFF7D8FE03E0FFF77BFE00E000BF00BFE6
:10128C0080BD00BF5000002080B500AF00F0D8FB3F
:10129C0000F00CF800F092F800F044F8024801F06D
:1012AC0017FBFFF7BDF8FCE7C800002080B590B035
:1012BC0000AF07F1180328220021184601F0B8FEF0
:1012CC003B1D00221A605A609A60DA601A61022390
:1012DC00BB610123BB621023FB6200237B6307F11C
:1012EC001803184600F0C8FE0346002B01D000F08E
:1012FC00D3F80F237B600023BB600023FB6000232B
:10130C003B6100237B613B1D0021184601F034F941
:10131C000346002B01D000F0BFF800BF4037BD469C
:10132C0080BD000080B586B000AF07F10803002235
:10133C001A605A609A60DA603B4600221A605A6062
:10134C001D4B4FF080421A601B4B41F63F725A60A6
:10135C00194B00229A60184B0922DA60164B0022B6
:10136C001A61154B00229A61134801F061FA034689
:10137C00002B01D000F090F84FF48053BB6007F1C4
:10138C00080319460C4801F0DFFB0346002B01D083
:10139C0000F082F800233B6000237B603B4619463B
:1013AC00054801F0B7FD0346002B01D000F074F89E
:1013BC0000BF1837BD4680BDC800002080B586B080
:1013CC0000AF07F1080300221A605A609A60DA60D5
:1013DC00294B9B69284A43F004039361264B9B6974
:1013EC0003F004037B607B68234B9B69224A43F028
:1013FC0008039361204B9B6903F008033B603B6837
:10140C00002240F6FE711D4800F004FE002243F657
:10141C00FF711B4800F0FEFD40F6FE73BB6001231C
:10142C00FB6000233B6102237B6107F10803194633
:10143C00124800F075FC43F6FF73BB600123FB60A0
:10144C0000233B6102237B6107F1080319460C481A
:10145C0000F066FC4FF46043BB600023FB6001238B
:10146C003B6107F108031946044800F059FC00BF22
:10147C001837BD4680BD00BF001002400008014077
:10148C00000C014080B582B000AF786000F08CF8A1
:10149C0000BF0837BD4680BD80B400AF72B600BF38
:1014AC00FEE7000080B483B000AF7860074B0022E9
:1014BC001A60074B1B687A6892FBF3F3054A1360BA
:1014CC0000BF0C37BD4680BC704700BF78000020C1
:1014DC00100000207C00002080B483B000AF786046
:1014EC00074B00221A60074B1B687A6892FBF3F3D8
:1014FC00054A136000BF0C37BD4680BC704700BF67
:10150C0080000020100000208400002080B483B0F4
:10151C0000AF7860074B00221A60074B1B687A6893
:10152C0092FBF3F3054A136000BF0C37BD4680BC39
:10153C00704700BF88000020100000208C000020A5
:10154C0080B483B000AF7860074B00221A60074B61
:10155C001B687A6892FBF3F3054A136000BF0C37E3
:10156C00BD4680BC704700BF9000002010000020DA
:10157C009400002080B483B000AF7860074B002249
:10158C001A60074B1B687A6892FBF3F3054A1360E9
:10159C0000BF0C37BD4680BC704700BFC0000020A8
:1015AC0010000020C400002080B400AF514B1B6819
:1015BC00002B0BDD4F4B1B68013B4E4A13604D4B10
:1015CC001B68002B02DC4C4B01221A604B4B1B6836
:1015DC00002B0BDD494B1B68013B484A1360474B02
:1015EC001B68002B02DC464B01221A60454B1B6822
:1015FC00002B0BDD434B1B68013B424A1360414BF4
:10160C001B68002B02DC404B01221A603F4B1B680D
:10161C00002B0BDD3D4B1B68013B3C4A13603B4BE5
:10162C001B68002B02DC3A4B01221A60394B1B68F9
:10163C00002B0BDD374B1B68013B364A1360354BD7
:10164C001B68002B02DC344B01221A60334B1B68E5
:10165C00002B0BDD314B1B68013B304A13602F4BC9
:10166C001B68002B02DC2E4B01221A602D4B1B68D1
:10167C00002B0BDD2B4B1B68013B2A4A1360294BBB
:10168C001B68002B02DC284B01221A60274B1B68BD
:10169C00002B0BDD254B1B68013B244A1360234BAD
:1016AC001B68002B02DC224B01221A60214B1B68A9
:1016BC00002B0BDD1F4B1B68013B1E4A13601D4B9F
:1016CC001B68002B02DC1C4B01221A601B4B1B6895
:1016DC00002B0BDD194B1B68013B184A1360174B91
:1016EC001B68002B02DC164B01221A6000BFBD46A2
:1016FC0080BC70477C000020780000208400002013
:10170C00800000208C000020880000209400002025
:10171C00900000209C00002098000020A4000020D5
:10172C00A0000020AC000020A8000020B400002085
:10173C00B0000020BC000020B8000020C400002035
:10174C00C000002080B485B000AF154B9B69144AD3
:10175C0043F001039361124B9B6903F00103BB60DF
:10176C00BB680F4BDB690E4A43F08053D3610C4BC3
:10177C00DB6903F080537B607B680A4B5B68FB6022
:10178C00FB6823F0E063FB60FB6843F08063FB6065
:10179C00044AFB68536000BF1437BD4680BC7047D9
:1017AC00001002400000014080B584B000AF7860AA
:1017BC007B681B68B3F1804F13D10C4BDB690B4A70
:1017CC0043F00103D361094BDB6903F00103FB60B8
:1017DC00FB68002200211C2000F06BFA1C2000F09A
:1017EC0084FA00BF1037BD4680BD00BF0010024018
:1017FC0080B400AFFEE780B400AFFEE780B400AF6A
:10180C00FEE780B400AFFEE780B400AFFEE780B423
:10181C0000AF00BFBD4680BC704780B400AF00BFB6
:10182C00BD4680BC704780B400AF00BFBD4680BCD5
:10183C00704780B500AF00F049F900BF80BD0000D3
:10184C0080B500AF024801F08FF800BF80BD00BF2B
:10185C00C800002080B400AF00BFBD4680BC7047FC
:10186C0080B500AF2021024800F0ECFB00BF80BD2A
:10187C000008014080B500AF0022CC21044800F0E4
:10188C00C9FB1221024800F0DDFB00BF80BD00BF88
:10189C000008014080B500AF00225621044800F03A
:1018AC00B9FB8821024800F0CDFB00BF80BD00BF12
:1018BC000008014080B500AF00229A21044800F0D6
:1018CC00A9FB4421024800F0BDFB00BF80BD00BF56
:1018DC000008014080B500AF012202210E4800F043
:1018EC0099FB002204210C4800F094FB00220821F3
:1018FC00094800F08FFB00221021074800F08AFBFA
:10190C0000224021044800F085FB0122802102487E
:10191C0000F080FB00BF80BD0008014080B500AF27
:10192C00012202210E4800F075FB002204210C4814
:10193C0000F070FB00220821094800F06BFB00222C
:10194C001021074800F066FB01224021044800F0FA
:10195C0061FB00228021024800F05CFB00BF80BDCF
:10196C000008014080B500AF002202210E4800F0B3
:10197C0051FB002204210C4800F04CFB01220821F1
:10198C00094800F047FB01221021074800F042FBF8
:10199C0000224021044800F03DFB00228021024837
:1019AC0000F038FB00BF80BD0008014080B500AFDF
:1019BC00002202210E4800F02DFB012204210C48CC
:1019CC0000F028FB00220821094800F023FB01222B
:1019DC001021074800F01EFB00224021044800F0B3
:1019EC0019FB00228021024800F014FB00BF80BDCF
:1019FC0000080140FFF72EFF0B480C490C4A00234E
:101A0C0002E0D458C4500433C4188C42F9D3094AA8
:101A1C00094C002301E013600432A242FBD301F015
:101A2C00E3FAFFF731FC7047000000202000002093
:101A3C00903000082000002014010020FEE7000078
:101A4C0080B500AF084B1B68074A43F010031360C6
:101A5C00032000F023F90F2000F008F8FFF772FEC6
:101A6C000023184680BD00BF0020024080B582B024
:101A7C0000AF7860124B1A68124B1B7819464FF462
:101A8C007A73B3FBF1F3B2FBF3F3184600F03BF9B6
:101A9C000346002B01D001230EE07B680F2B0AD8E4
:101AAC00002279684FF0FF3000F003F9064A7B689A
:101ABC001360002300E0012318460837BD4680BDA3
:101ACC00140000201C0000201800002080B400AF7F
:101ADC00054B1B781A46054B1B681344034A1360CD
:101AEC0000BFBD4680BC70471C00002010010020C8
:101AFC0080B400AF024B1B681846BD4680BC7047D3
:101B0C001001002080B485B000AF78607B6803F0D2
:101B1C000703FB600C4BDB68BB60BA684FF6FF0336
:101B2C001340BB60FB681A02BB68134343F0BF63EE
:101B3C0043F40033BB60044ABB68D36000BF143766
:101B4C00BD4680BC704700BF00ED00E080B400AF24
:101B5C00044BDB681B0A03F007031846BD4680BC28
:101B6C00704700BF00ED00E080B483B000AF0346C7
:101B7C00FB7197F90730002B0BDBFB7903F01F028D
:101B8C00064997F907305B09012000FA02F241F887
:101B9C00232000BF0C37BD4680BC704700E100E03D
:101BAC0080B483B000AF03463960FB7197F90730FE
:101BBC00002B0ADB3B68DAB20C4997F907301201AB
:101BCC00D2B20B4483F800230AE03B68DAB208492E
:101BDC00FB7903F00F03043B1201D2B20B441A76CB
:101BEC0000BF0C37BD4680BC704700BF00E100E071
:101BFC0000ED00E080B489B000AFF860B9607A60A5
:101C0C00FB6803F00703FB61FB69C3F10703042BBB
:101C1C0028BF0423BB61FB690433062B02D9FB6983
:101C2C00033B00E000237B614FF0FF32BB6902FAFB
:101C3C0003F3DA43BB681A407B699A404FF0FF31DB
:101C4C007B6901FA03F3D9437B680B4013431846B5
:101C5C002437BD4680BC704780B582B000AF786039
:101C6C007B68013BB3F1807F01D301230FE00A4A6B
:101C7C007B68013B53600F214FF0FF30FFF790FF63
:101C8C00054B00229A60044B07221A600023184669
:101C9C000837BD4680BD00BF10E000E080B582B0C3
:101CAC0000AF78607868FFF72DFF00BF0837BD469E
:101CBC0080BD80B586B000AF0346B9607A60FB7317
:101CCC0000237B61FFF742FF78617A68B968786915
:101CDC00FFF790FF024697F90F3011461846FFF7B1
:101CEC005FFF00BF1837BD4680BD80B582B000AF26
:101CFC000346FB7197F907301846FFF735FF00BF15
:101D0C000837BD4680BD80B582B000AF786078687A
:101D1C00FFF7A2FF034618460837BD4680BD0000FA
:101D2C0080B48BB000AF7860396000237B620023F5
:101D3C003B6248E101227B6A02FA03F3FB613B68D8
:101D4C001B68FA691340BB61BA69FB699A4240F09F
:101D5C0037813B685B68A34A93425ED0A14A9342A9
:101D6C0075D8A14A934258D09F4A93426FD89F4A44
:101D7C00934252D09D4A934269D89D4A93424CD08B
:101D8C009B4A934263D89B4A934246D0994A9342CA
:101D9C005DD8122B2AD8122B59D801A252F823F055
:101DAC00271E0008011E0008131E0008551E0008FF
:101DBC005B1E00085B1E00085B1E00085B1E000813
:101DCC005B1E00085B1E00085B1E00085B1E000803
:101DDC005B1E00085B1E00085B1E00085B1E0008F3
:101DEC005B1E0008091E00081D1E0008824A934253
:101DFC0013D02CE03B68DB683B6229E03B68DB6876
:101E0C0004333B6224E03B68DB6808333B621FE031
:101E1C003B68DB680C333B621AE03B689B68002B29
:101E2C0002D104233B6213E03B689B68012B05D174
:101E3C0008233B627B68FA691A6109E008233B625C
:101E4C007B68FA695A6103E000233B6200E000BF43
:101E5C00BB69FF2B01D87B6801E07B6804337B6195
:101E6C00BB69FF2B02D87B6A9B0002E07B6A083BB4
:101E7C009B003B617B691A680F213B6901FA03F3F4
:101E8C00DB431A40396A3B6901FA03F31A437B6955
:101E9C001A603B685B6803F08053002B00F0908065
:101EAC00564B9B69554A43F001039361534B9B6915
:101EBC0003F00103BB60BB68514A7B6A9B08023389
:101ECC0052F82330FB607B6A03F003039B000F2264
:101EDC0002FA03F3DB43FA681340FB607B68494A60
:101EEC0093420DD07B68484A934207D07B68474A9F
:101EFC00934201D1022304E0032302E0012300E01A
:101F0C0000237A6A02F0030292009340FA681343AA
:101F1C00FB603B497B6A9B080233FA6841F823203B
:101F2C003B685B6803F48013002B06D0384B9A682F
:101F3C003749BB6913438B6006E0354B9A68BB6924
:101F4C00DB43334913408B603B685B6803F400133D
:101F5C00002B06D02E4BDA682D49BB691343CB609E
:101F6C0006E02B4BDA68BB69DB4329491340CB6095
:101F7C003B685B6803F40033002B06D0244B5A6893
:101F8C002349BB6913434B6006E0214B5A68BB697C
:101F9C00DB431F4913404B603B685B6803F48033A1
:101FAC00002B06D01A4B1A681949BB6913430B60F6
:101FBC0006E0174B1A68BB69DB43154913400B60ED
:101FCC007B6A01337B623B681A687B6A22FA03F3F3
:101FDC00002B7FF4AFAE00BF00BF2C37BD4680BCDA
:101FEC00704700BF000032100000311000002210BA
:101FFC00000021100000121000001110001002400F
:10200C000000014000080140000C0140001001409C
:10201C000004014080B483B000AF78600B467B8035
:10202C0013467B707B78002B03D07A887B681A610F
:10203C0003E07B881A047B681A6100BF0C37BD462D
:10204C0080BC704780B485B000AF78600B467B8055
:10205C007B68DB68FB607A88FB6813401A04FB68BA
:10206C00D9437B880B401A437B681A6100BF143735
:10207C00BD4680BC7047000080B586B000AF78606C
:10208C007B68002B01D101236CE27B681B6803F099
:10209C000103002B00F08780924B5B6803F00C036C
:1020AC00042B0CD08F4B5B6803F00C03082B12D164
:1020BC008C4B5B6803F48033B3F5803F0BD1894BB9
:1020CC001B6803F40033002B6CD07B685B68002B1F
:1020DC0068D1012346E27B685B68B3F5803F06D18B
:1020EC00804B1B687F4A43F4803313602EE07B687F
:1020FC005B68002B0CD17B4B1B687A4A23F4803332
:10210C001360784B1B68774A23F4802313601DE01F
:10211C007B685B68B3F5A02F0CD1724B1B68714ABE
:10212C0043F4802313606F4B1B686E4A43F4803377
:10213C0013600BE06B4B1B686A4A23F4803313600B
:10214C00684B1B68674A23F4802313607B685B68C9
:10215C00002B13D0FFF7CCFC386108E0FFF7C8FC6C
:10216C0002463B69D31A642B01D90323FAE15D4B78
:10217C001B6803F40033002BF0D014E0FFF7B8FC1D
:10218C00386108E0FFF7B4FC02463B69D31A642BB4
:10219C0001D90323E6E1534B1B6803F40033002BF6
:1021AC00F0D100E000BF7B681B6803F00203002B3A
:1021BC0063D04C4B5B6803F00C03002B0BD0494BEA
:1021CC005B6803F00C03082B1CD1464B5B6803F4D3
:1021DC008033002B16D1434B1B6803F00203002BFA
:1021EC0005D07B681B69012B01D00123BAE13D4B63
:1021FC001B6823F0F8027B685B69DB0039491343E9
:10220C000B603AE07B681B69002B20D0364B012217
:10221C001A60FFF76DFC386108E0FFF769FC0246B5
:10222C003B69D31A022B01D903239BE12D4B1B686D
:10223C0003F00203002BF0D02A4B1B6823F0F802AA
:10224C007B685B69DB00274913430B6015E0264B69
:10225C0000221A60FFF74CFC386108E0FFF748FCDD
:10226C0002463B69D31A022B01D903237AE11D4B99
:10227C001B6803F00203002BF0D17B681B6803F092
:10228C000803002B3AD07B689B69002B19D0174BA5
:10229C0001221A60FFF72CFC386108E0FFF728FCDC
:1022AC0002463B69D31A022B01D903235AE10D4B89
:1022BC005B6A03F00203002BF0D0012000F09AFAC5
:1022CC001CE00A4B00221A60FFF712FC38610FE089
:1022DC00FFF70EFC02463B69D31A022B08D90323E5
:1022EC0040E100BF00100240000042428004424224
:1022FC009E4B5B6A03F00203002BE9D17B681B68E1
:10230C0003F00403002B00F0A6800023FB75974B11
:10231C00DB6903F08053002B0DD1944BDB69934A9E
:10232C0043F08053D361914BDB6903F08053BB6066
:10233C00BB680123FB758E4B1B6803F48073002B69
:10234C0018D18B4B1B688A4A43F480731360FFF7D8
:10235C00CFFB386108E0FFF7CBFB02463B69D31A91
:10236C00642B01D90323FDE0814B1B6803F48073BC
:10237C00002BF0D07B68DB68012B06D17B4B1B6AF2
:10238C007A4A43F0010313622DE07B68DB68002B73
:10239C000CD1764B1B6A754A23F001031362734B05
:1023AC001B6A724A23F0040313621CE07B68DB682F
:1023BC00052B0CD16D4B1B6A6C4A43F00403136262
:1023CC006A4B1B6A694A43F0010313620BE0674BCB
:1023DC001B6A664A23F001031362644B1B6A634A4F
:1023EC0023F0040313627B68DB68002B15D0FFF726
:1023FC007FFB38610AE0FFF77BFB02463B69D31A8F
:10240C0041F28832934201D90323ABE0574B1B6A4C
:10241C0003F00203002BEED014E0FFF769FB3861E8
:10242C000AE0FFF765FB02463B69D31A41F288329A
:10243C00934201D9032395E04C4B1B6A03F0020332
:10244C00002BEED1FB7D012B05D1484BDB69474AB4
:10245C0023F08053D3617B68DB69002B00F0818013
:10246C00424B5B6803F00C03082B61D07B68DB6983
:10247C00022B46D13F4B00221A60FFF739FB386123
:10248C0008E0FFF735FB02463B69D31A022B01D952
:10249C00032367E0354B1B6803F00073002BF0D16E
:1024AC007B681B6AB3F5803F08D1304B5B6823F423
:1024BC0000327B689B682D4913434B602B4B5B6848
:1024CC0023F474127B68196A7B685B6A0B43274997
:1024DC0013434B60274B01221A60FFF709FB38614D
:1024EC0008E0FFF705FB02463B69D31A022B01D922
:1024FC00032337E01D4B1B6803F00073002BF0D057
:10250C002FE01C4B00221A60FFF7F2FA386108E04A
:10251C00FFF7EEFA02463B69D31A022B01D90323CB
:10252C0020E0124B1B6803F00073002BF0D118E075
:10253C007B68DB69012B01D1012313E00B4B5B683A
:10254C00FB60FB6803F480327B681B6A9A4206D1FD
:10255C00FB6803F470127B685B6A9A4201D001231A
:10256C0000E0002318461837BD4680BD001002401D
:10257C00007000406000424280B584B000AF7860CB
:10258C0039607B68002B01D10123D0E06A4B1B68BA
:10259C0003F007033A689A4210D9674B1B6823F083
:1025AC00070265493B6813430B60634B1B6803F0E0
:1025BC0007033A689A4201D00123B8E07B681B6894
:1025CC0003F00203002B20D07B681B6803F004038C
:1025DC00002B05D0594B5B68584A43F4E0635360B9
:1025EC007B681B6803F00803002B05D0534B5B681A
:1025FC00524A43F460535360504B5B6823F0F00233
:10260C007B689B684D4913434B607B681B6803F0E8
:10261C000103002B40D07B685B68012B07D1474B33
:10262C001B6803F40033002B15D101237FE07B687A
:10263C005B68022B07D1414B1B6803F00073002B26
:10264C0009D1012373E03D4B1B6803F00203002BFF
:10265C0001D101236BE0394B5B6823F003027B68EB
:10266C005B68364913434B60FFF742FAF8600AE0A7
:10267C00FFF73EFA0246FB68D31A41F288329342C6
:10268C0001D9032353E02D4B5B6803F00C027B68EC
:10269C005B689B009A42EBD1274B1B6803F0070346
:1026AC003A689A4210D2244B1B6823F00702224945
:1026BC003B6813430B60204B1B6803F007033A681D
:1026CC009A4201D0012332E07B681B6803F00403BB
:1026DC00002B08D0194B5B6823F4E0627B68DB6845
:1026EC00164913434B607B681B6803F00803002BEF
:1026FC0009D0124B5B6823F460527B681B69DB00CA
:10270C000E4913434B6000F021F802460B4B5B68FB
:10271C001B0903F00F030A49CB5C22FA03F3094AA5
:10272C001360094B1B681846FFF7A0F900231846E5
:10273C001037BD4680BD00BF002002400010024093
:10274C0064300008140000201800002080B487B00A
:10275C0000AF0023FB600023BB6000237B610023E0
:10276C007B6000233B611E4B5B68FB60FB6803F0E6
:10277C000C03042B02D0082B03D027E0194B3B6130
:10278C0027E0FB689B0C03F00F03174AD35C7B60BC
:10279C00FB6803F48033002B10D0114B5B685B0C8F
:1027AC0003F00103114AD35CBB607B680D4A02FB4A
:1027BC0003F2BB68B2FBF3F37B6104E07B680C4A69
:1027CC0002FB03F37B617B693B6102E0054B3B61E0
:1027DC0000BF3B6918461C37BD4680BC704700BF24
:1027EC000010024000127A00743000088430000897
:1027FC0000093D0080B485B000AF78600A4B1B68BF
:10280C000A4AA2FB03235B0A7A6802FB03F3FB6010
:10281C0000BFFB685A1EFA60002BF9D100BF00BF45
:10282C001437BD4680BC704714000020D34D621095
:10283C0080B582B000AF78607B68002B01D101239A
:10284C0041E07B6893F83D30DBB2002B06D17B680E
:10285C00002283F83C207868FEF7A6FF7B680222F2
:10286C0083F83D207B681A687B6804331946104650
:10287C0000F056FA7B68012283F846207B6801221F
:10288C0083F83E207B68012283F83F207B6801227D
:10289C0083F840207B68012283F841207B68012269
:1028AC0083F842207B68012283F843207B68012255
:1028BC0083F844207B68012283F845207B68012241
:1028CC0083F83D20002318460837BD4680BD000024
:1028DC0080B485B000AF78607B6893F83D30DBB294
:1028EC00012B01D0012335E07B68022283F83D20C7
:1028FC007B681B68DA687B681B6842F00102DA604F
:10290C007B681B68164A934209D07B681B68B3F13D
:10291C00804F04D07B681B68124A934211D17B68AC
:10292C001B689B6803F00703FB60FB68062B10D049
:10293C007B681B681A687B681B6842F001021A608E
:10294C0007E07B681B681A687B681B6842F0010211
:10295C001A60002318461437BD4680BC704700BF70
:10296C00002C01400004004080B584B000AF7860BA
:10297C007B681B68DB68FB607B681B681B69BB6042
:10298C00BB6803F00203002B20D0FB6803F00203AA
:10299C00002B1BD07B681B686FF002021A617B68EE
:1029AC0001221A777B681B689B6903F00303002BD9
:1029BC0003D0786800F098F905E0786800F08BF99E
:1029CC00786800F09AF97B6800221A77BB6803F0EC
:1029DC000403002B20D0FB6803F00403002B1BD056
:1029EC007B681B686FF004021A617B6802221A77FD
:1029FC007B681B689B6903F44073002B03D07868D9
:102A0C0000F072F905E0786800F065F9786800F07C
:102A1C0074F97B6800221A77BB6803F00803002B5B
:102A2C0020D0FB6803F00803002B1BD07B681B68CD
:102A3C006FF008021A617B6804221A777B681B68A6
:102A4C00DB6903F00303002B03D0786800F04CF92A
:102A5C0005E0786800F03FF9786800F04EF97B6883
:102A6C0000221A77BB6803F01003002B20D0FB6800
:102A7C0003F01003002B1BD07B681B686FF0100257
:102A8C001A617B6808221A777B681B68DB6903F480
:102A9C004073002B03D0786800F026F905E07868C5
:102AAC0000F019F9786800F028F97B6800221A7791
:102ABC00BB6803F00103002B0CD0FB6803F001038F
:102ACC00002B07D07B681B686FF001021A617868D5
:102ADC00FEF7D8FCBB6803F08003002B0CD0FB681E
:102AEC0003F08003002B07D07B681B686FF080021B
:102AFC001A61786800F06FFABB6803F04003002B92
:102B0C000CD0FB6803F04003002B07D07B681B68DC
:102B1C006FF040021A61786800F0F8F8BB6803F0B7
:102B2C002003002B0CD0FB6803F02003002B07D0F4
:102B3C007B681B686FF020021A61786800F042FA1B
:102B4C0000BF1037BD4680BD80B584B000AF786043
:102B5C0039600023FB737B6893F83C30012B01D167
:102B6C000223B4E07B68012283F83C207B680222BC
:102B7C0083F83D207B681B689B68BB60BB6823F0B7
:102B8C007703BB60BB6823F47F43BB607B681B6827
:102B9C00BA689A603B681B68B3F5005F3ED0B3F52A
:102BAC00005F00F28780B3F5805F00F08680B3F59C
:102BBC00805F7FD8702B1AD0702B7BD8602B50D0B5
:102BCC00602B77D8502B3CD0502B73D8402B58D03F
:102BDC00402B6FD8302B64D0302B6BD8202B60D08F
:102BEC00202B67D8002B5CD0102B5AD062E07B686E
:102BFC0018683B6899683B685A683B68DB6800F06A
:102C0C006AF97B681B689B68BB60BB6843F0770301
:102C1C00BB607B681B68BA689A604FE07B68186879
:102C2C003B6899683B685A683B68DB6800F053F96D
:102C3C007B681B689A687B681B6842F480429A60C8
:102C4C003CE07B6818683B6859683B68DB681A464F
:102C5C0000F0CAF87B681B685021184600F021F977
:102C6C002CE07B6818683B6859683B68DB681A463F
:102C7C0000F0E8F87B681B686021184600F011F939
:102C8C001CE07B6818683B6859683B68DB681A462F
:102C9C0000F0AAF87B681B684021184600F001F987
:102CAC000CE07B681A683B681B681946104600F0FC
:102CBC00F8F803E00123FB7300E000BF7B680122FE
:102CCC0083F83D207B68002283F83C20FB7B184670
:102CDC001037BD4680BD80B483B000AF786000BFB4
:102CEC000C37BD4680BC704780B483B000AF7860B1
:102CFC0000BF0C37BD4680BC704780B483B000AFBA
:102D0C00786000BF0C37BD4680BC704780B483B080
:102D1C0000AF786000BF0C37BD4680BC7047000028
:102D2C0080B485B000AF786039607B681B68FB604D
:102D3C007B682B4A934207D07B68B3F1804F03D05A
:102D4C007B68284A934208D1FB6823F07003FB6030
:102D5C003B685B68FA681343FB607B68204A9342CC
:102D6C0007D07B68B3F1804F03D07B681D4A934238
:102D7C0008D1FB6823F44073FB603B68DB68FA689E
:102D8C001343FB60FB6823F080023B685B691343D1
:102D9C00FB607B68FA681A603B689A687B68DA6249
:102DAC003B681A687B689A627B680D4A934203D130
:102DBC003B681A697B681A637B6801225A617B68DD
:102DCC001B6903F00103002B05D07B681B6923F002
:102DDC0001027B681A6100BF1437BD4680BC704786
:102DEC00002C01400004004080B487B000AFF860B4
:102DFC00B9607A60FB681B6A7B61FB681B6A23F015
:102E0C000102FB681A62FB689B693B613B6923F01A
:102E1C00F0033B617B681B013A6913433B617B699F
:102E2C0023F00A037B617A69BB6813437B61FB68FF
:102E3C003A699A61FB687A691A6200BF1C37BD4611
:102E4C0080BC704780B487B000AFF860B9607A601E
:102E5C00FB681B6A7B61FB681B6A23F01002FB6832
:102E6C001A62FB689B693B613B6923F470433B61CD
:102E7C007B681B033A6913433B617B6923F0A00316
:102E8C007B61BB681B017A6913437B61FB683A6900
:102E9C009A61FB687A691A6200BF1C37BD4680BC18
:102EAC00704780B485B000AF786039607B689B68F0
:102EBC00FB60FB6823F07003FB603A68FB6813430C
:102ECC0043F00703FB607B68FA689A6000BF143715
:102EDC00BD4680BC704780B487B000AFF860B96065
:102EEC007A603B60FB689B687B617B6923F47F4362
:102EFC007B613B681A027B681A43BB6813437A698F
:102F0C0013437B61FB687A699A6000BF1C37BD462E
:102F1C0080BC704780B485B000AF786039607B6846
:102F2C0093F83C30012B01D1022341E07B68012254
:102F3C0083F83C207B68022283F83D207B681B6869
:102F4C005B68FB607B681B689B68BB60FB6823F05D
:102F5C007003FB603B681B68FA681343FB607B687B
:102F6C001B68FA685A607B681B68144A934209D044
:102F7C007B681B68B3F1804F04D07B681B68104AD8
:102F8C0093420CD1BB6823F08003BB603B685B6849
:102F9C00BA681343BB607B681B68BA689A607B682D
:102FAC00012283F83D207B68002283F83C2000231B
:102FBC0018461437BD4680BC704700BF002C01403A
:102FCC000004004080B483B000AF786000BF0C37C1
:102FDC00BD4680BC704780B483B000AF786000BF42
:102FEC000C37BD4680BC704770B500260C4D0D4C9F
:102FFC00641BA410A64209D100F022F800260A4D49
:10300C000A4C641BA410A64205D170BD55F8043BB4
:10301C0098470136EEE755F8043B98470136F2E73E
:10302C008830000888300008883000088C30000890
:10303C0003460244934200D1704703F8011BF9E7A1
:10304C00F8B500BFF8BC08BC9E467047F8B500BF89
:08305C00F8BC08BC9E46704759
:103064000000000000000000010203040607080934
:1030740002030405060708090A0B0C0D0E0F1010B5
:043084000102000045
:04308800310100080A
:04308C000D0100082A
:103090000100000005000000020000000300000025
:1030A0000A00000000127A00100000000100000079
:0400000508001A01D4
:00000001FF
